{
  "contractName": "Record_keeper",
  "abi": [
    {
      "inputs": [],
      "payable": false,
      "stateMutability": "nonpayable",
      "type": "constructor"
    },
    {
      "constant": true,
      "inputs": [],
      "name": "getName",
      "outputs": [
        {
          "internalType": "string",
          "name": "",
          "type": "string"
        }
      ],
      "payable": false,
      "stateMutability": "view",
      "type": "function"
    },
    {
      "constant": true,
      "inputs": [],
      "name": "getAge",
      "outputs": [
        {
          "internalType": "uint256",
          "name": "",
          "type": "uint256"
        }
      ],
      "payable": false,
      "stateMutability": "view",
      "type": "function"
    },
    {
      "constant": true,
      "inputs": [],
      "name": "getDocList",
      "outputs": [
        {
          "internalType": "address[]",
          "name": "",
          "type": "address[]"
        }
      ],
      "payable": false,
      "stateMutability": "view",
      "type": "function"
    },
    {
      "constant": false,
      "inputs": [
        {
          "internalType": "string",
          "name": "n",
          "type": "string"
        }
      ],
      "name": "setName",
      "outputs": [],
      "payable": false,
      "stateMutability": "nonpayable",
      "type": "function"
    },
    {
      "constant": false,
      "inputs": [
        {
          "internalType": "uint256",
          "name": "n",
          "type": "uint256"
        }
      ],
      "name": "setAge",
      "outputs": [],
      "payable": false,
      "stateMutability": "nonpayable",
      "type": "function"
    },
    {
      "constant": false,
      "inputs": [
        {
          "internalType": "address",
          "name": "n",
          "type": "address"
        }
      ],
      "name": "addDocToList",
      "outputs": [],
      "payable": false,
      "stateMutability": "nonpayable",
      "type": "function"
    },
    {
      "constant": false,
      "inputs": [
        {
          "internalType": "string",
          "name": "disease",
          "type": "string"
        },
        {
          "internalType": "string",
          "name": "treat",
          "type": "string"
        },
        {
          "internalType": "string",
          "name": "med",
          "type": "string"
        }
      ],
      "name": "addTreatment",
      "outputs": [],
      "payable": false,
      "stateMutability": "nonpayable",
      "type": "function"
    },
    {
      "constant": true,
      "inputs": [],
      "name": "viewHistory",
      "outputs": [
        {
          "components": [
            {
              "internalType": "string",
              "name": "diseaseType",
              "type": "string"
            },
            {
              "internalType": "string",
              "name": "treatment",
              "type": "string"
            },
            {
              "internalType": "string",
              "name": "medicine",
              "type": "string"
            }
          ],
          "internalType": "struct Record_keeper.Record[]",
          "name": "",
          "type": "tuple[]"
        }
      ],
      "payable": false,
      "stateMutability": "view",
      "type": "function"
    },
    {
      "constant": true,
      "inputs": [],
      "name": "getHash",
      "outputs": [
        {
          "internalType": "string",
          "name": "",
          "type": "string"
        }
      ],
      "payable": false,
      "stateMutability": "view",
      "type": "function"
    },
    {
      "constant": false,
      "inputs": [
        {
          "internalType": "string",
          "name": "h",
          "type": "string"
        }
      ],
      "name": "setHash",
      "outputs": [],
      "payable": false,
      "stateMutability": "nonpayable",
      "type": "function"
    }
  ],
  "bytecode": "0x608060405234801561001057600080fd5b50336000806101000a81548173ffffffffffffffffffffffffffffffffffffffff021916908373ffffffffffffffffffffffffffffffffffffffff160217905550611899806100606000396000f3fe608060405234801561001057600080fd5b506004361061009e5760003560e01c8063967e6e6511610066578063967e6e6514610135578063c47f002714610153578063d13319c41461016f578063d5dcf1271461018d578063df2edcb8146101a95761009e565b806317d7de7c146100a35780631ed83fd4146100c15780632cba84c2146100dd5780634b69a4bf146100fb57806379c8657f14610119575b600080fd5b6100ab6101c5565b6040516100b89190611619565b60405180910390f35b6100db60048036036100d69190810190611267565b610372565b005b6100e5610494565b6040516100f291906115d5565b60405180910390f35b61010361062d565b60405161011091906115f7565b60405180910390f35b610133600480360361012e919081019061123e565b61097d565b005b61013d610ad2565b60405161014a919061167b565b60405180910390f35b61016d60048036036101689190810190611267565b610be6565b005b610177610c92565b6040516101849190611619565b60405180910390f35b6101a760048036036101a2919081019061133f565b610e3c565b005b6101c360048036036101be91908101906112a8565b610ed7565b005b6060600080905060011515600160030160003373ffffffffffffffffffffffffffffffffffffffff1673ffffffffffffffffffffffffffffffffffffffff16815260200190815260200160002060009054906101000a900460ff161515141561022d57600190505b6000809054906101000a900473ffffffffffffffffffffffffffffffffffffffff1673ffffffffffffffffffffffffffffffffffffffff163373ffffffffffffffffffffffffffffffffffffffff16141561028757600190505b60011515811515146102ce576040517f08c379a00000000000000000000000000000000000000000000000000000000081526004016102c59061165b565b60405180910390fd5b60016000018054600181600116156101000203166002900480601f0160208091040260200160405190810160405280929190818152602001828054600181600116156101000203166002900480156103675780601f1061033c57610100808354040283529160200191610367565b820191906000526020600020905b81548152906001019060200180831161034a57829003601f168201915b505050505091505090565b600080905060011515600160030160003373ffffffffffffffffffffffffffffffffffffffff1673ffffffffffffffffffffffffffffffffffffffff16815260200190815260200160002060009054906101000a900460ff16151514156103d857600190505b6000809054906101000a900473ffffffffffffffffffffffffffffffffffffffff1673ffffffffffffffffffffffffffffffffffffffff163373ffffffffffffffffffffffffffffffffffffffff16141561043257600190505b6001151581151514610479576040517f08c379a00000000000000000000000000000000000000000000000000000000081526004016104709061165b565b60405180910390fd5b816006908051906020019061048f92919061109b565b505050565b6060600080905060011515600160030160003373ffffffffffffffffffffffffffffffffffffffff1673ffffffffffffffffffffffffffffffffffffffff16815260200190815260200160002060009054906101000a900460ff16151514156104fc57600190505b6000809054906101000a900473ffffffffffffffffffffffffffffffffffffffff1673ffffffffffffffffffffffffffffffffffffffff163373ffffffffffffffffffffffffffffffffffffffff16141561055657600190505b600115158115151461059d576040517f08c379a00000000000000000000000000000000000000000000000000000000081526004016105949061165b565b60405180910390fd5b600160020180548060200260200160405190810160405280929190818152602001828054801561062257602002820191906000526020600020905b8160009054906101000a900473ffffffffffffffffffffffffffffffffffffffff1673ffffffffffffffffffffffffffffffffffffffff16815260200190600101908083116105d8575b505050505091505090565b6060600080905060011515600160030160003373ffffffffffffffffffffffffffffffffffffffff1673ffffffffffffffffffffffffffffffffffffffff16815260200190815260200160002060009054906101000a900460ff161515141561069557600190505b6000809054906101000a900473ffffffffffffffffffffffffffffffffffffffff1673ffffffffffffffffffffffffffffffffffffffff163373ffffffffffffffffffffffffffffffffffffffff1614156106ef57600190505b6001151581151514610736576040517f08c379a000000000000000000000000000000000000000000000000000000000815260040161072d9061165b565b60405180910390fd5b6001600401805480602002602001604051908101604052809291908181526020016000905b828210156109735783829060005260206000209060030201604051806060016040529081600082018054600181600116156101000203166002900480601f0160208091040260200160405190810160405280929190818152602001828054600181600116156101000203166002900480156108175780601f106107ec57610100808354040283529160200191610817565b820191906000526020600020905b8154815290600101906020018083116107fa57829003601f168201915b50505050508152602001600182018054600181600116156101000203166002900480601f0160208091040260200160405190810160405280929190818152602001828054600181600116156101000203166002900480156108b95780601f1061088e576101008083540402835291602001916108b9565b820191906000526020600020905b81548152906001019060200180831161089c57829003601f168201915b50505050508152602001600282018054600181600116156101000203166002900480601f01602080910402602001604051908101604052809291908181526020018280546001816001161561010002031660029004801561095b5780601f106109305761010080835404028352916020019161095b565b820191906000526020600020905b81548152906001019060200180831161093e57829003601f168201915b5050505050815250508152602001906001019061075b565b5050505091505090565b3373ffffffffffffffffffffffffffffffffffffffff166000809054906101000a900473ffffffffffffffffffffffffffffffffffffffff1673ffffffffffffffffffffffffffffffffffffffff1614610a0c576040517f08c379a0000000000000000000000000000000000000000000000000000000008152600401610a039061163b565b60405180910390fd5b60018060030160008373ffffffffffffffffffffffffffffffffffffffff1673ffffffffffffffffffffffffffffffffffffffff16815260200190815260200160002060006101000a81548160ff02191690831515021790555060016002018190806001815401808255809150509060018203906000526020600020016000909192909190916101000a81548173ffffffffffffffffffffffffffffffffffffffff021916908373ffffffffffffffffffffffffffffffffffffffff1602179055505050565b6000806000905060011515600160030160003373ffffffffffffffffffffffffffffffffffffffff1673ffffffffffffffffffffffffffffffffffffffff16815260200190815260200160002060009054906101000a900460ff1615151415610b3a57600190505b6000809054906101000a900473ffffffffffffffffffffffffffffffffffffffff1673ffffffffffffffffffffffffffffffffffffffff163373ffffffffffffffffffffffffffffffffffffffff161415610b9457600190505b6001151581151514610bdb576040517f08c379a0000000000000000000000000000000000000000000000000000000008152600401610bd29061165b565b60405180910390fd5b600180015491505090565b3373ffffffffffffffffffffffffffffffffffffffff166000809054906101000a900473ffffffffffffffffffffffffffffffffffffffff1673ffffffffffffffffffffffffffffffffffffffff1614610c75576040517f08c379a0000000000000000000000000000000000000000000000000000000008152600401610c6c9061163b565b60405180910390fd5b8060016000019080519060200190610c8e92919061109b565b5050565b6060600080905060011515600160030160003373ffffffffffffffffffffffffffffffffffffffff1673ffffffffffffffffffffffffffffffffffffffff16815260200190815260200160002060009054906101000a900460ff1615151415610cfa57600190505b6000809054906101000a900473ffffffffffffffffffffffffffffffffffffffff1673ffffffffffffffffffffffffffffffffffffffff163373ffffffffffffffffffffffffffffffffffffffff161415610d5457600190505b6001151581151514610d9b576040517f08c379a0000000000000000000000000000000000000000000000000000000008152600401610d929061165b565b60405180910390fd5b60068054600181600116156101000203166002900480601f016020809104026020016040519081016040528092919081815260200182805460018160011615610100020316600290048015610e315780601f10610e0657610100808354040283529160200191610e31565b820191906000526020600020905b815481529060010190602001808311610e1457829003601f168201915b505050505091505090565b3373ffffffffffffffffffffffffffffffffffffffff166000809054906101000a900473ffffffffffffffffffffffffffffffffffffffff1673ffffffffffffffffffffffffffffffffffffffff1614610ecb576040517f08c379a0000000000000000000000000000000000000000000000000000000008152600401610ec29061163b565b60405180910390fd5b80600180018190555050565b600080905060011515600160030160003373ffffffffffffffffffffffffffffffffffffffff1673ffffffffffffffffffffffffffffffffffffffff16815260200190815260200160002060009054906101000a900460ff1615151415610f3d57600190505b6000809054906101000a900473ffffffffffffffffffffffffffffffffffffffff1673ffffffffffffffffffffffffffffffffffffffff163373ffffffffffffffffffffffffffffffffffffffff161415610f9757600190505b6001151581151514610fde576040517f08c379a0000000000000000000000000000000000000000000000000000000008152600401610fd59061165b565b60405180910390fd5b606084905060608490506060849050600160040160405180606001604052808581526020018481526020018381525090806001815401808255809150509060018203906000526020600020906003020160009091929091909150600082015181600001908051906020019061105492919061111b565b50602082015181600101908051906020019061107192919061111b565b50604082015181600201908051906020019061108e92919061111b565b5050505050505050505050565b828054600181600116156101000203166002900490600052602060002090601f016020900481019282601f106110dc57805160ff191683800117855561110a565b8280016001018555821561110a579182015b828111156111095782518255916020019190600101906110ee565b5b509050611117919061119b565b5090565b828054600181600116156101000203166002900490600052602060002090601f016020900481019282601f1061115c57805160ff191683800117855561118a565b8280016001018555821561118a579182015b8281111561118957825182559160200191906001019061116e565b5b509050611197919061119b565b5090565b6111bd91905b808211156111b95760008160009055506001016111a1565b5090565b90565b6000813590506111cf81611828565b92915050565b600082601f8301126111e657600080fd5b81356111f96111f4826116c3565b611696565b9150808252602083016020830185838301111561121557600080fd5b6112208382846117d5565b50505092915050565b6000813590506112388161183f565b92915050565b60006020828403121561125057600080fd5b600061125e848285016111c0565b91505092915050565b60006020828403121561127957600080fd5b600082013567ffffffffffffffff81111561129357600080fd5b61129f848285016111d5565b91505092915050565b6000806000606084860312156112bd57600080fd5b600084013567ffffffffffffffff8111156112d757600080fd5b6112e3868287016111d5565b935050602084013567ffffffffffffffff81111561130057600080fd5b61130c868287016111d5565b925050604084013567ffffffffffffffff81111561132957600080fd5b611335868287016111d5565b9150509250925092565b60006020828403121561135157600080fd5b600061135f84828501611229565b91505092915050565b60006113748383611394565b60208301905092915050565b600061138c8383611568565b905092915050565b61139d81611799565b82525050565b60006113ae8261170f565b6113b88185611755565b93506113c3836116ef565b8060005b838110156113f45781516113db8882611368565b97506113e68361173b565b9250506001810190506113c7565b5085935050505092915050565b600061140c8261171a565b6114168185611766565b935083602082028501611428856116ff565b8060005b8581101561146457848403895281516114458582611380565b945061145083611748565b925060208a0199505060018101905061142c565b50829750879550505050505092915050565b600061148182611730565b61148b8185611788565b935061149b8185602086016117e4565b6114a481611817565b840191505092915050565b60006114ba82611725565b6114c48185611777565b93506114d48185602086016117e4565b6114dd81611817565b840191505092915050565b60006114f5601283611788565b91507f46414c454420544f20415554484f52495a4500000000000000000000000000006000830152602082019050919050565b6000611535601283611788565b91507f4e6f7420616c6c6f77656420746f2073656500000000000000000000000000006000830152602082019050919050565b6000606083016000830151848203600086015261158582826114af565b9150506020830151848203602086015261159f82826114af565b915050604083015184820360408601526115b982826114af565b9150508091505092915050565b6115cf816117cb565b82525050565b600060208201905081810360008301526115ef81846113a3565b905092915050565b600060208201905081810360008301526116118184611401565b905092915050565b600060208201905081810360008301526116338184611476565b905092915050565b60006020820190508181036000830152611654816114e8565b9050919050565b6000602082019050818103600083015261167481611528565b9050919050565b600060208201905061169060008301846115c6565b92915050565b6000604051905081810181811067ffffffffffffffff821117156116b957600080fd5b8060405250919050565b600067ffffffffffffffff8211156116da57600080fd5b601f19601f8301169050602081019050919050565b6000819050602082019050919050565b6000819050602082019050919050565b600081519050919050565b600081519050919050565b600081519050919050565b600081519050919050565b6000602082019050919050565b6000602082019050919050565b600082825260208201905092915050565b600082825260208201905092915050565b600082825260208201905092915050565b600082825260208201905092915050565b60006117a4826117ab565b9050919050565b600073ffffffffffffffffffffffffffffffffffffffff82169050919050565b6000819050919050565b82818337600083830152505050565b60005b838110156118025780820151818401526020810190506117e7565b83811115611811576000848401525b50505050565b6000601f19601f8301169050919050565b61183181611799565b811461183c57600080fd5b50565b611848816117cb565b811461185357600080fd5b5056fea365627a7a72315820cfd34831f628149eae8322d9d3f7b56e0f1d1544acc9d766f8d5e9dc79b7ce3a6c6578706572696d656e74616cf564736f6c63430005100040",
  "source": "// SPDX-License-Identifier: MIT\npragma solidity ^0.5.16;\npragma experimental ABIEncoderV2;\n \ncontract Record_keeper {\n    struct Pat {\n        string name;\n        uint age;\n        address[] listDocs;\n        mapping (address => bool) docs;\n        Record[] record;\n    }\n \n    struct Record {\n        string diseaseType;\n        string treatment;\n        string medicine;\n    }\n \n    address owner;\n    Pat pat;\n    string hash;\n \n    constructor() public {\n        owner = msg.sender;\n    }\n \n    modifier ifAuth() {\n        require(\n            owner == msg.sender,\n            \"FALED TO AUTHORIZE\"\n        );\n        _;\n    }\n \n    modifier isDoc() {\n        bool flag = false;\n        // for(uint i = 0; i < pat.docs.length; i++) {\n        //         if(pat.docs[i] == msg.sender) {\n        //             flag = true;\n        //             break;\n        //         }\n        // }\n        if(pat.docs[msg.sender] == true)\n            flag = true;\n        if(msg.sender == owner)\n            flag = true;\n        require(\n            flag == true,\n            \"Not allowed to see\"\n        );\n        _;\n    }\n \n    function getName() public view isDoc() returns (string memory) {\n        return pat.name;\n    }\n \n    function getAge() public view isDoc() returns (uint)  {\n        return pat.age;\n    }\n \n    function getDocList() public view isDoc() returns (address[] memory) {\n        return pat.listDocs;\n    }\n \n    function setName(string memory n) public ifAuth(){\n        pat.name = n;\n    }\n \n    function setAge(uint n) public ifAuth(){\n        pat.age = n;\n    }\n \n    function addDocToList(address n) public ifAuth(){\n        pat.docs[n] = true;\n        pat.listDocs.push(n);\n    }\n \n    function addTreatment(string memory disease, string memory treat, string memory med) public isDoc() {\n        string memory temp1 = disease;\n        string memory temp2 = treat;\n        string memory temp3 = med;\n \n        pat.record.push(Record(temp1, temp2, temp3));\n    }\n \n    function viewHistory() public view isDoc() returns (Record[] memory) {\n        return pat.record;\n    }\n \n    function getHash() public view isDoc() returns (string memory) {\n        return hash;\n    }\n \n    function setHash(string memory h) public isDoc() {\n        hash = h;\n    }\n}\n",
  "sourcePath": "/home/chirag/RP2/Projeto-3/Ethereum/Ethereum/contracts/Record_keeper.sol",
  "compiler": {
    "name": "solc",
    "version": "0.5.16+commit.9c3226ce.Emscripten.clang"
  },
  "schemaVersion": "3.4.6",
  "updatedAt": "2022-04-26T04:46:46.334Z",
  "devdoc": {
    "methods": {}
  },
  "userdoc": {
    "methods": {}
  },
  "gas": 3000000
}